:020000040000FA
:020000002428B2
:040002000034003492
:08000800A0000308A1008B1306
:100010000B1D1B28A208031D1328A308031D152868
:100020008B1224141B28A2031928FF30A200A3035B
:10003000192881018B160B118B100B108B172108BF
:100040008300A00E200E0900831660308F008312FB
:100050008B018501073099008316850185150516EA
:100060009601873081009F0183120030C000A801F3
:10007000A90190215E202508013C0319622825086A
:10008000023C0319962844299430A2000330A300AF
:100090005828BB30A2000A30A30058284E30A200D6
:1000A0000E30A3005828E230A2001130A3005828D7
:1000B000A40181018B178B118B1608008921013057
:1000C000A5004428241860297F21A9188528291C07
:1000D0007028AA214420C00A033040020319C0003E
:1000E0004008003C031979284008013C03197D2889
:1000F00081280514851005113B2805148514051168
:100100003B280514851405153B284008003C031DB9
:100110008B28492092284008013C031D91284E203D
:1001200092285320AD210230A5003B2824184129F4
:100130007F21291C9E28A91C9E2860290E3023029D
:10014000031CA828031DDD284E3022020318DD28D9
:100150000A302302031CB228031DF528BB302202FB
:100160000318F52807302302031CBC28031D0929A6
:10017000273022020318092903302302031CC62852
:10018000031D192994302202031819290130230272
:10019000031CD028031D2C29CA30220203182C2945
:1001A00000302302031CDA28031D33299930220270
:1001B000031833293A2941293B28051485140515CC
:1001C00093210511932105159321051193210515FF
:1001D00093210511932105159321051193210515EF
:1001E00093210511932193213B28051485140515AE
:1001F00093210511932105159321051193210515CF
:100200009321051193210515932105119321932124
:100210003B28051485140515932105119321051517
:100220009321051193210515932105119321932104
:100230003B280514051185149321851093218514FD
:1002400093218510932193213B28851005110514D6
:100250009321051093213B28851005110514932146
:10026000051093213B2885100511051499210510CF
:1002700099213B288510051105149C2105109C210E
:100280003B280330A5003B280330DD210330E52166
:100290000E30ED210330E5210530DD219921992132
:1002A0000330DD210330E5210330ED210330E5216A
:1002B0000330DD211130E52199219921992160290F
:1002C0000030A5008B018501902190219021902183
:1002D00085018B01831696011616961583128B15D0
:1002E0008B1300000000630000000000051485145B
:1002F0000515AA210510851005115E203B28280848
:10030000A801051E2814851DA81428062805A90083
:100310000800A801051E2814851DA814A9010800BD
:10032000FA30A600A229C830A600A2299630A6005D
:10033000A2296430A600A2293230A600A2290530E5
:10034000A600A229FA30A7000000A70BA429A60B3B
:10035000A22908000130F52108000130F52199217A
:100360000130F5210800B00AB00BB72908003108A8
:10037000B5008516C0218512C021B50BB929B42955
:100380003208B600B60AB60BC8293308B400CA2929
:10039000DA21C3293408B8000310B80C0310B80CD4
:1003A0000330B80203190800031C08000000B80B52
:1003B000D62908003F30B800D629B0003430B1004B
:1003C0000330B200BC30B300B329B0003B30B10001
:1003D0000330B2005330B300B329B0004230B10053
:1003E0000230B200F630B300B329B0006930B1007A
:0A03F0000130B200DE30B300B32983
:02400E00C43BB1
:084200000000010002000300B0
:00000001FF
