:020000040000FA
:020000002028B6
:040002000034003492
:08000800A0000308A1000B1D7C
:100010001B28A208031D1228A308031D1428013061
:10002000A4081B28A2031828FF30A208A30318283D
:10003000810120308B0021088300A00E200E0900D2
:10004000831660308F0083128B0185010730990081
:1000500083168501851505169601873081009F015D
:1000600083129E200139031D3628382805143A28AA
:1000700005103A28A3200139031D3F284128851483
:100080004328851043289E20013903194C28A320BA
:10009000013903194C284E28051131280515023065
:1000A0008516BE208512BE2031282508013C031983
:1000B0005E282508023C03195E285F287B28033050
:1000C000F7200330FF200E3007210330FF200530DA
:1000D000F720AD20AD200330F7200330FF200330A0
:1000E00007210330FF200330F7201130FF20AD201F
:1000F000AD20AD205F280030A5000514851405153E
:10010000CB20051085100511AA20051485140515AE
:10011000CB200510851005118B01AA20AA20AA204A
:10012000AA2083169601961683128B1500000000F4
:100130006300000000000130A5003128051AA8283E
:10014000051AA828A9288519A8288519A828A92842
:1001500000340134FA30A600C3286430A600C32856
:100160003230A600C3280530A600C3280130A600FF
:10017000C3280130A6007D30A700C5280130A600A5
:100180001930A700C528FA30A7000000A70BC52822
:10019000A60BC32808000230F7200800B00BD128B6
:1001A00008003108B5008516DA208512DA20B50B73
:1001B000D328CE283208B600B60AB60BE228330898
:1001C000B400E428F420DD283408B8000310B80C8B
:1001D0000310B80C0330B80203190800031C080010
:1001E0000000B80BF02808003F30B800F028B0003D
:1001F0003430B1000330B200BC30B300CE28B000C0
:100200003B30B1000330B2005330B300CE28B00011
:100210004230B1000230B200F630B300CE28B00058
:0E0220006930B1000130B200DE30B300CE28EC
:02400E00C438B4
:084200000000010002000300B0
:00000001FF
